:100EBF00256E476574202564256E00256E47657481
:100ECF00202563256E0048656C6C6F256E00576595
:100EDF00656B3A00312D2D54696D65416C61726DF2
:100EEF003A00322D2D54656D704C696D69743A005E
:100F7000011D000708000000000000000716630CB8
:100F80001F173B3B07011100011F0001130801154A
:100F900001C18201101EC180011214C101010F0A9A
:030FA00001140930
:0300230002093B94
:10093B00C0E0C0F0C083C082C0D075D000C000C082
:0D094B0001C002C003C004C005C006C00703
:10095800752100C2AFC2AC309805859921C298E5CF
:10096800217006C2B3D2B7801DE521B40106C2B317
:10097800C2B78018E521B40221C2B3C2B71212ED82
:100988001212ED1212ED1212ED1212ED1212ED7B8F
:10099800FF7A0E79BFAD211204C9E521645770337F
:1009A800C2B3C2B71212ED1212ED1212ED1212ED0D
:1009B8001212ED1212ED1212ED1212ED1212ED12C8
:1009C80012ED1212ED1212ED7BFF7A0E79CAAD21EB
:0909D8001204C9D2B7D2AFD2ACAF
:1009E100D007D006D005D004D003D002D001D0006A
:0B09F100D0D0D082D083D0F0D0E03214
:10002600120EFF7BFF7A0E79D51204C9120D90E4E9
:10003600F51FE5116402600302028612125A120DC0
:1000460090E4F51D12125A120D90E51FB401051227
:1000560011FE8F08E51FB402051211EA8F09E51F8C
:10006600B403051211D68F0AE51FB404051211C296
:100076008F0BE51FB405051211AE8F0CE51FB406F4
:100086000512119A8F0DE51FB4070512132E8F0E58
:10009600E5116402600302027AE51F651D60030232
:1000A6000256E51F7003020256AF1F120BB3E50E90
:1000B6007003750E01E5097003750901120E7D7452
:1000C60015251DF8E6FF7407251DF8E6D39F4007A2
:1000D6007407251DF8A6077407251DF8E670141287
:1000E6000645BF050E7415251DF8E6FF7407251D88
:1000F600F8A607E509B40109120645BF0503750907
:100106000C7407251DF8E6FF7415251DF8E6B507DE
:100116001C120645BF0116E51D640160097407251A
:100126001DF8E4F680077407251DF87601E51DB471
:10013600011EAF0812114F1211FEC0071211EAC0BC
:10014600071211D6AB07D005D007120C1A121312DC
:10015600E51DB4021EAF091211361211FEC00712B8
:1001660011EAC0071211D6AB07D005D007120C1A38
:10017600121312E51DB4031EAF0A12111D1211FE51
:10018600C0071211EAC0071211D6AB07D005D00777
:10019600120C1A121312E51DB4041EAF0B12110431
:1001A6001211FEC0071211EAC0071211D6AB07D012
:1001B60005D007120C1A121312E51DB4051EAF0C5A
:1001C6001210EB1211FEC0071211EAC0071211D667
:1001D600AB07D005D007120C1A121312E51DB40690
:1001E6001EAF0D1210D21211FEC0071211EAC0077F
:1001F6001211D6AB07D005D007120C1A121312E54E
:100206001DB407191211FEC0071211EAC007121118
:10021600D6AB07D005D007120C1A121312E51F70C1
:100226001312125A120D907D017F0C1212B7120E84
:100236002F1212491212ED7D017F0C1212B7120E07
:100246002F121249121238E5116402700302009F40
:10025600E51F701212125A120E2F1212491212387C
:10026600E511640260EA051DC3E51D6480948850AB
:100276000302004A121249E51164027003020038B3
:100286007D017F011212B7E4F51FE51164016003D9
:100296000203A6120D90E51F700F121249121238B2
:1002A600120B38E511640160EDE51F640170367DBF
:1002B60001FF1212127D017F0F1212B7120645EFCF
:1002C60064056006120645BF0102B2021212ED7DF8
:1002D600017F0C1212B7120B38121249121238E5AE
:1002E60011640160C47D017F0C1212B7E51F640220
:1002F600704B7D017F041212127D017F0F1212B71F
:10030600AF131212D38F131212E08F13D3E51364B7
:100316008094974003E4F513C3E5136480948050FA
:10032600037513171212ED7D017F0C1212B7120B13
:1003360038121249121238E511640160AFE51F64E4
:1003460003704B7D017F071212127D017F0F12127F
:10035600B7AF151212D38F151212E08F15D3E5150C
:10036600648094BB4003E4F515C3E515648094806E
:10037600500375153B1212ED7D017F0C1212B71258
:100386000B38121249121238E511640160AFE51FED
:100396006404600C121249E51164017003020290B4
:1003A600120F38E4F51FE5116003020029120D90C3
:1003B600E51F700C120D901212491209FC12123828
:1003C600E51F64017038120D907D017F0312121231
:1003D6007D017F0F1212B7120645EF640560061203
:1003E6000645BF0102B2011212ED7D017F0C121209
:1003F600B71209FC121249121238E51160C2E51F44
:1004060064027034120D907D017F051212127D0177
:100416007F0F1212B7AF121212D38F121212E08F81
:10042600121212ED7D017F0C1212B71209FC121284
:1004360049121238E51160C6E51F64037038120DC3
:10044600907D017F0B1212127D017F0F1212B712DF
:100456000645EF64056006120645BF0102B20012AA
:1004660012ED7D017F0C1212B71209FC121249120D
:100476001238E51160C2E51F64047034120D907DD8
:10048600017F0D1212127D017F0F1212B7AF1012EB
:1004960012D38F101212E08F101212ED7D017F0C15
:1004A6001212B71209FC121249121238E51160C66F
:1004B600E51F64057003020029E51170030203AC11
:0304C60002002908
:100EFF00120F381210081211FE8F081211EA8F0903
:100F0F001211D68F0A1211C28F0B1211AE8F0C1243
:100F1F00119A8F0D12132E8F0E120F3812109C1262
:090F2F00109C7FC07E12020DE04F
:10084700E56875F00A842430FBE4FDFF12107DE5AE
:100857006875F00A84E5F02430FBE4FD7F0112108F
:100867007DE56675F00A842430FBE4FD7F031210F2
:100877007DE56675F00A84E5F02430FBE4FD7F042E
:1008870012107DE56375F00A842430FBE4FD7F06D2
:1008970012107DE56375F00A84E5F02430FBE4FD72
:1008A7007F0712107DE56575F00A842430FB7D0112
:1008B700E4FF12107DE56575F00A84E5F02430FB4E
:1008C7007D017F0112107D7B3A7D017F0212107D31
:1008D700E56475F00A842430FB7D017F0312107DE7
:1008E700E56475F00A84E5F02430FB7D017F04128E
:1008F700107D7B3A7D017F0512107DE56275F00A58
:10090700842430FB7D017F0612107DE56275F00AB5
:1009170084E5F02430FB7D017F0712107D7A0E7B82
:10092700DD7D017F0A120C7DE5672430FB7D017FA9
:040937000F02107D1E
:100CDE00300403751E2D200403751E2BAB1EE4FD80
:100CEE007F0A12107DE56A75F00A842430FBE4FD5C
:100CFE007F0B12107DE56A75F00A84E5F02430FB57
:100D0E00E4FD7F0C12107D7B2EE4FD7F0D12107D15
:100D1E00E56975F005A4AEF07803CEC313CE13D8F3
:0D0D2E00F9F5692430FBE4FD7F0E02107D15
:100E2F00121181E4FD7F02121212E4FF121334E457
:100E3F00FD7F051212127F01121334E4FD7F081299
:100E4F0012127F021213343002077D017F08121233
:100E5F00127F03121334E4FD7F0F1212127F04125C
:0E0E6F00133412105912084712109C020CDEA8
:10123800120645BF02020511E511B40303E4F511D6
:011248002283
:10124900120645BF0902051FE51FB40803E4F51F8F
:011259002272
:0F127B008F3C120645BF01067407253CF806227A
:0F128A008F3C120645BF05067407253CF8162257
:0D12D3008F3B120645BF0102053BAF3B22D9
:0D12E0008F3B120645BF0502153BAF3B22B8
:100B38007A0E7BE3E4FDFF120C7D30020E7D01E4AA
:100B4800FF1212127F0312133480097B437D01E4E4
:100B5800FF12107DE51375F00A12074B2430FB7D58
:100B6800017F0312107DE51375F00A12074BAFF0F1
:100B7800EF2430FB7D017F0412107D7B3A7D017FDD
:100B88000512107DE51575F00A12074B2430FB7D20
:100B9800017F0612107DE51575F00A12074BAFF0BC
:0B0BA800EF2430FB7D017F0702107D71
:1009FC007A0E7BF1E4FDFF120C7D7B4C7D01E4FF54
:100A0C0012107D7B3A7D017F0112107DA201E4332F
:100A1C0070047B2D80027B2B7D017F0312107DE502
:100A2C001275F00A842430FB7D017F0412107DE5E1
:100A3C001275F00A84E5F02430FB7D017F0512105D
:100A4C007D7D017F061212127F041213347B487DC8
:100A5C00017F0812107D7B3A7D017F0912107DA267
:100A6C0000E43370047B2D80027B2B7D017F0B1205
:100A7C00107DE51075F00A842430FB7D017F0C128B
:100A8C00107DE51075F00A84E5F02430FB7D017FC4
:100A9C000D12107D7D017F0E1212127F0402133491
:100BB3008F3B12127BAF3B12128AE51FB40107E48D
:100BC300FD7F01121212E51F64036005E51FB402E5
:100BD3000EE51F251F251F24FEFFE4FD121212E55B
:100BE3001FB404077D017F01121212E51F64056023
:100BF30005E51FB4060EE51F251F251F24F5FF7D00
:100C030001121212E51FB407077D017F0F121212A2
:070C13007D017F0F0212B703
:0C12ED00E4FFE4FE0EBE64FC0FBF64F6DC
:0112F90022D2
:10125A0030020DE564B51506E565B5130122D2B76E
:01126A002261
:100D9000A204B3300001B34009300006E56A9510A3
:100DA0005038A204B3300101B3400A300107E56AAC
:100DB000D395124025A204B3300001B3400A2000AD
:100DC00007E56AD395104012A204B3300101B34085
:100DD0000C200109E56A95124003C2B322D2B32266
:100E7D00E51D6403703B1211EABF02101211FEEF63
:100E8D005403700475181D2275181C221211EAEFF7
:100E9D00640460161211EAEF6406600E1211EAEF97
:100EAD00640960061211EABF0B0475181E2275182D
:020EBD001F22F2
:100C1A008F3BAA05EA64016003BA0212740C2AFA2D
:100C2A00E53BD394004004153B8003753B04EA245A
:100C3A0001FFE433FE7C007D031207B37D05120732
:100C4A00C5AC06AD07EA75F002A47A002BFFEA35B7
:100C5A00F0CF2DCF3CFE7C00EF253BFFEC3EFEE5BE
:100C6A003B1313543F2FFFEC3EFE7D071207C5EDE1
:030C7A0004FF2252
:100FA700C203D2B6753B01D53BFDC2B6753BFAD538
:100FB7003BFDD2B6753B1ED53BFD20B60B753B7886
:100FC700D53BFD30B6F4D2033003D5753BF0D53BA6
:010FD700FD1C
:010FD80022F6
:1010B9007E08C2B67D06DDFEEF1392B67D19DDFE10
:0810C900EFC313FFD2B6DEEA0B
:0110D10022FC
:100D3B0079027C08EDC313FDC2B67B01DBFED2B694
:100D4B007B04DBFE30B6034305807B19DBFEDCE462
:100D5B00B90204AF058002AE05D9D7C204EE54F830
:100D6B006011D2046306FF6307FFEF04FFD394FF08
:100D7B0040010EEF540FF569EFC4540FFFEEC4544E
:040D8B00F04FF56AC6
:010D8F002241
:10109C00120FA77FCC1210B97F441210B9120FA7F0
:0D10AC007FCC1210B97FBE1210B9020D3BAF
:06000300C2A5C2A3D2A5B4
:10000900EF7F08A2E092A4D2A3C2A3FE7D017801EA
:09001900088002C313D8FCDFEAE1
:0100220022BB
:10122600D2A47F08C313A2A492E7D2A3C2A3DFF479
:01123600FFB8
:011237002294
:0F129900AC05120003AF04120009D2A3C2A522B4
:0C12FA00E4FE120003121226D2A3C2A5CB
:0113060022C4
:10119A007F811212FAEFC4540F75F00AA4FEEF54BD
:0311AA000F2EFF06
:0111AD00221F
:1011AE007F831212FAEFC4540F75F00AA4FEEF54A7
:0311BE000F2EFFF2
:0111C100220B
:1011C2007F851212FAEFC4540F75F00AA4FEEF5491
:0311D2000F2EFFDE
:0111D50022F7
:05132E007F8B1212FA92
:011333002297
:1011D6007F871212FAEFC4540F75F00AA4FEEF547B
:0311E6000F2EFFCA
:0111E90022E3
:1011EA007F891212FAEFC4540F75F00AA4FEEF5465
:0311FA000F2EFFB6
:0111FD0022CF
:1011FE007F8D1212FAEFC4540F75F00AA4FEEF544D
:03120E000F2EFFA1
:0112110022BA
:1010D200AD07ED75F00A84C454F0FFED75F00A8493
:0910E200EF25F0FD7F8002129958
:1010EB00AD07ED75F00A84C454F0FFED75F00A847A
:0910FB00EF25F0FD7F820212993D
:10110400AD07ED75F00A84C454F0FFED75F00A8460
:09111400EF25F0FD7F8402129921
:10111D00AD07ED75F00A84C454F0FFED75F00A8447
:09112D00EF25F0FD7F8602129906
:10113600AD07ED75F00A84C454F0FFED75F00A842E
:09114600EF25F0FD7F88021299EB
:07131200AD077F8A0212996A
:10114F00AD07ED75F00A84C454F0FFED75F00A8415
:09115F00EF25F0FD7F8C021299CE
:07131900E4FD7F8E02129932
:071320007D807F8502129918
:101008001213191213207F321210D27F3B1210EBE9
:101018007F171211047F1F12111D7F0C1213127FEC
:091028000A1211367F0A02114F71
:100FD9008E548F558D82121319121320AF5F121080
:100FE900D2AF82121136AF61121312AF5512114FDF
:0F0FF900AF0312111DAF5B121104AF5D0210EBBD
:1010590012119A8F621211AE8F641211C28F65122A
:1010690011D68F6312132E8F671211EA8F66121130
:04107900FE8F68225C
:10103100080F120F0A1F02000F111F111F111300B9
:101041001F11111F11111F00050E1417140E050099
:08105100191B04080804030147
:06132700C2A18F90D2A2CA
:01132D00229D
:0E12A8007FB07E15EF1FAC0670011E4C70F675
:0112B6002215
:101168007D05AC051DEC60107E1C7F65EF1FAA068F
:0811780070011E4A60EC80F4D6
:01118000224C
:10126B007590FFC2A0D2A1D2A212132D2097F1220A
:0E12B700ED600312126BC2A0121327C2A22216
:0B13070012126BD2A0121327C2A22208
:10121200ED7006EF2480FE8004EF24C0FEAF06E4EA
:04122200FD0212B700
:10107D00AE07AC0353050153060FED600343064065
:0F108D00430680AF06E4FD1212B7AF040213074B
:080C7D008F3B8D3C8A3D8B3E4C
:100C8500E4F53FE53E253FF582E4353DF583E49304
:100C9500D3941F4004053F80EAE4F9E9C3953F502A
:100CA50037AF3B053BE53E29F582E4353DF583E469
:100CB50093FBAD3C12107DE53BB41019E4F53B63A5
:100CC5003C01E53C700FFB1211680BBB0AF97D0175
:080CD5007F011212B70980C370
:010CDD0022F4
:10118100E4FEEE2440FFE4FD1212B7EE901031931D
:08119100FF1213070EBE28EA4D
:011199002233
:031334000213079A
:100F38001212A81212A81212A8E4FD7F381212B7D2
:100F48001212A87F381212B71212A87F381212B7DD
:100F58000D1212B77F081212B77F011212B77F065F
:080F68001212B77F0C0212B750
:030FA300016B00DF
:0D12C500EFD3940040077E6EDEFE1F80F325
:0112D20022F9
:10064500E4F53D7580FE85806B536BF0E56B64F0DA
:1006550060317F321212C585806BE56B2482601B89
:1006650024C0601224E0600924F07014753D0180F7
:1006750012753D02800D753D038008753D048003AC
:10068500E4F53D7580FD85806B536BF0E56B64F09B
:1006950060317F641212C585806BE56B2483601B16
:1006A50024C0601224E0600924F07014753D0580B3
:1006B50012753D06800D753D078008753D08800360
:1006C500E4F53D7580FB85806B536BF0E56B64F05D
:1006D50060317F641212C585806BE56B2485601BD4
:1006E50024C0601224E0600924F07014753D0A806E
:1006F50012753D09800D753D0B8008753D0C800315
:10070500E4F53D7580F785806B536BF0E56B64F020
:1007150060317F641212C585806BE56B2489601B8F
:1007250024C0601224E0600924F07014753D0D802A
:1007350012753D0E800D753D0F8008753D108003C7
:05074500E4F53DAF3DAD
:01074A00228C
:100DE000759840D29C758920D28EEF8EF012081A29
:100DF0000E0404B00E0909600E1412C00E162580F0
:100E000000000E1453877F8003438780758DE8753B
:100E10008BE88016800B438780758DFA758BFA807E
:0F0E200009438780758DF4758BF4D2AFC2AB2276
:0204C9008D3E66
:1004CB008B4E8A4F895075510075520075533ED231
:1004DB008EC2AFC2ACAB4EAA4FA95012076D7003C0
:1004EB00020640B42531900001120786B46328AB95
:1004FB0051AA52A95312076DF59974012553F5535F
:10050B00E43552F55274022550F550E4354FF54F52
:10051B003099FDC29980BEAB4EAA4FA95012076D00
:10052B00642570759000011207866464706BAB5183
:10053B00AA52A95312076DFE75F06484FDEE75F097
:10054B006484AEF0EE75F00A84FCEE75F00A84AFAD
:10055B00F0EDD39400400AED2430F5993099FDC2AB
:10056B0099EDD394005005EC9400400AEC2430F53F
:10057B00993099FDC299EF2430F59974012553F503
:10058B0053E43552F55274022550F550E4354FF5CE
:10059B004F3099FDC2990204E0AB4EAA4FA95012FD
:1005AB00076DFE6425703E90000112078664627031
:1005BB00347F07AB51AA52A95312076DFDA8070848
:1005CB008002C313D8FC54012430F5993099FDC235
:1005DB00991FEFC3940050DB74012553F553E43599
:1005EB0052F5528024EE6425702DAB4EAA4FA950C4
:1005FB00900001120786B46E1E75990D3099FDC2DD
:10060B009975990A3099FDC29974022550F550E4F9
:10061B00354FF54F0204E0AB4EAA4FA95012076DB0
:10062B00F59974012550F550E4354FF54F3099FD90
:09063B00C2990204E0D2AFD2AC76
:010644002293
:03000000020AAC45
:0C0AAC00787FE4F6D8FD75816B020AF338
:10074B00C2D530F707B2D563F0FF05F030E70CB236
:10075B00D5F4048463F0FF05F080018430D502F4F6
:02076B00042266
:10076D00BB010689828A83E0225002E722BBFE028A
:09077D00E32289828A83E49322BD
:10078600BB010CE58229F582E5833AF583E0225028
:1007960006E92582F8E622BBFE06E92582F8E22272
:0D07A600E58229F582E5833AF583E493228C
:1007B300EF8DF0A4A8F0CF8CF0A428CE8DF0A42E5A
:0207C300FE2214
:1007C500BC000BBE0029EF8DF084FFADF022E4CC18
:1007D500F875F008EF2FFFEE33FEEC33FCEE9DECE1
:1007E500984005FCEE9DFE0FD5F0E9E4CEFD22ED27
:1007F500F8F5F0EE8420D21CFEADF075F008EF2F71
:10080500FFED33FD4007985006D5F0F222C398FD61
:050815000FD5F0EA22FE
:10081A00D083D082F8E4937012740193700DA3A36D
:10082A0093F8740193F5828883E473740293B5F0A4
:0D083A00067403936860E9A3A3A3A380D80C
:100AB800020026E493A3F8E493A34003F68001F22E
:100AC80008DFF48029E493A3F85407240CC8C3333F
:100AD800C4540F4420C8834004F456800146F6DF0E
:100AE800E4800B0102040810204080900F70E47E1F
:100AF800019360BCA3FF543F30E509541FFEE49303
:100B0800A360010ECF54C025E060A840B8E493A3C9
:100B1800FAE493A3F8E493A3C8C582C8CAC583CAF4
:100B2800F0A3C8C582C8CAC583CADFE9DEE780BEAC
:010FA600004A
:00000001FF
