:100B760054657374207468652055617274206973B6
:100B8600204F4B2021212046726F6D2046756E63E3
:100B9600005765656B3A00312D2D54696D65416CC2
:100BA60061726D3A00322D2D54656D704C696D6918
:030BB600743A008E
:100C3300011D000708000000000000000716630CF8
:100C43001F173B3B07011100011F0001130801158A
:100C530001C18201101EC180011214C101010F0ADA
:030C630001140970
:10000300120C6A7BFF7A0B79767D01120D29120A95
:10001300D8E4F51FE51164026003020265120F675D
:10002300120AD8E4F51D120F67120AD8E51FB401AE
:1000330005120F3F8F08E51FB40205120F2B8F091E
:10004300E51FB40305120F178F0AE51FB404051249
:100053000F038F0BE51FB40505120EEF8F0CE51F81
:10006300B40605120EDB8F0DE51FB40705121092BF
:100073008F0EE51164026003020259E51F651D60DE
:1000830003020235E51F7003020235AF1F1208FB9E
:10009300E50E7003750E01E5097003750901120B76
:1000A300B97415251DF8E6FF7407251DF8E6D39FDF
:1000B30040077407251DF8A6077407251DF8E67089
:1000C300141204A8BF050E7415251DF8E6FF740766
:1000D300251DF8A607E509B401091204A8BF050305
:1000E30075090C7407251DF8E6FF7415251DF8E640
:1000F300B5071C1204A8BF0116E51D64016009744D
:1001030007251DF8E4F680077407251DF87601E539
:100113001DB4011EAF08120E90120F3FC007120F3D
:100123002BC007120F17AB07D005D00712096212B5
:100133001076E51DB4021EAF09120E77120F3FC0F1
:1001430007120F2BC007120F17AB07D005D00712EA
:100153000962121076E51DB4031EAF0A120E5E1279
:100163000F3FC007120F2BC007120F17AB07D005A5
:10017300D007120962121076E51DB4041EAF0B12EC
:100183000E45120F3FC007120F2BC007120F17ABFC
:1001930007D005D007120962121076E51DB4051EBB
:1001A300AF0C120E2C120F3FC007120F2BC00712F9
:1001B3000F17AB07D005D007120962121076E51DA1
:1001C300B4061EAF0D120E13120F3FC007120F2BF2
:1001D300C007120F17AB07D005D007120962121020
:1001E30076E51DB40719120F3FC007120F2BC00786
:1001F300120F17AB07D005D007120962121076E56C
:100203001F7013120F67120AD87D017F0C12101B87
:10021300120B28120F9D1210517D017F0C12101B1F
:10022300120B28120F9D120F8CE51164027003024A
:10023300007EE51F7012120F67120B28120F9D121A
:100243000F8CE511640260EA051DC3E51D6480940B
:10025300885003020029120F9DE511640270030206
:1002630000177D017F0112101BE4F51FE5116401E6
:100273006003020385120AD8E51F700F120F9D1247
:100283000F8C120880E511640160EDE51F640170B5
:10029300367D01FF120F537D017F0F12101B1204D5
:1002A300A8EF640560061204A8BF0102B20212108F
:1002B300517D017F0C12101B120880120F9D120F2B
:1002C3008CE511640160C47D017F0C12101BE51FD6
:1002D3006402704B7D017F04120F537D017F0F1267
:1002E300101BAF131210378F131210448F13D3E563
:1002F30013648094974003E4F513C3E51364809477
:100303008050037513171210517D017F0C12101BBF
:10031300120880120F9D120F8CE511640160AFE586
:100323001F6403704B7D017F07120F537D017F0F05
:1003330012101BAF151210378F151210448F15D3DF
:10034300E515648094BB4003E4F515C3E5156480AB
:100353009480500375153B1210517D017F0C1210D0
:100363001B120880120F9D120F8CE511640160AF00
:10037300E51F6404600C120F9DE511640170030214
:10038300026F120BFBE4F51FE51160030200061276
:100393000AD8E51F700C120AD8120F9D1206A2127A
:1003A3000F8CE51F64017038120AD87D017F031298
:1003B3000F537D017F0F12101B1204A8EF64056019
:1003C300061204A8BF0102B2011210517D017F0C75
:1003D30012101B1206A2120F9D120F8CE51160C2A0
:1003E300E51F64027034120AD87D017F05120F5392
:1003F3007D017F0F12101BAF121210378F121210D4
:10040300448F121210517D017F0C12101B1206A291
:10041300120F9D120F8CE51160C6E51F640370383F
:10042300120AD87D017F0B120F537D017F0F12102B
:100433001B1204A8EF640560061204A8BF0102B2F0
:10044300001210517D017F0C12101B1206A2120F15
:100453009D120F8CE51160C2E51F64047034120A0B
:10046300D87D017F0D120F537D017F0F12101BAF3B
:10047300101210378F101210448F101210517D017B
:100483007F0C12101B1206A2120F9D120F8CE51186
:1004930060C6E51F64057003020006E511700302E0
:0504A300038B020006BE
:100C6A00120BFB120D00120F3F8F08120F2B8F0968
:100C7A00120F178F0A120F038F0B120EEF8F0C121F
:100C8A000EDB8F0D1210928F0E120BFB120DDD125E
:050C9A000DDD020FAEAC
:1005AE00E53575F00A842430FBE4FDFF120DBEE53F
:1005BE003575F00A84E5F02430FBE4FD7F01120D61
:1005CE00BEE53375F00A842430FBE4FD7F03120D83
:1005DE00BEE53375F00A84E5F02430FBE4FD7F04BC
:1005EE00120DBEE53075F00A842430FBE4FD7F0663
:1005FE00120DBEE53075F00A84E5F02430FBE4FD03
:10060E007F07120DBEE53275F00A842430FB7D01A2
:10061E00E4FF120DBEE53275F00A84E5F02430FBDE
:10062E007D017F01120DBE7B3A7D017F02120DBE50
:10063E00E53175F00A842430FB7D017F03120DBE77
:10064E00E53175F00A84E5F02430FB7D017F04125C
:10065E000DBE7B3A7D017F05120DBEE52F75F00AAA
:10066E00842430FB7D017F06120DBEE52F75F00A46
:10067E0084E5F02430FB7D017F07120DBE7A0B7BE3
:10068E00977D017F0A1209C5E5342430FB7D017F79
:04069E000F020DBE7C
:100A2600300403751E2D200403751E2BAB1EE4FD3A
:100A36007F0A120DBEE53C75F00A842430FBE4FD06
:100A46007F0B120DBEE53C75F00A84E5F02430FB01
:100A5600E4FD7F0C120DBE7B2EE4FD7F0D120DBE54
:100A6600E53B75F005A4AEF07803CEC313CE13D8DC
:0D0A7600F9F53B2430FBE4FD7F0E020DBEC0
:100B2800120EC2E4FD7F02120F53E4FF121098E484
:100B3800FD7F05120F537F01121098E4FD7F081204
:100B48000F537F021210983002077D017F08120FA1
:100B5800537F03121098E4FD7F0F120F537F041286
:0E0B68001098120D7A1205AE120DDD020A264B
:100F8C001204A8BF02020511E511B40303E4F51124
:010F9C002232
:100F9D001204A8BF0902051FE51FB40803E4F51FDD
:010FAD002221
:0F0FDF008F371204A8BF010674072537F80622C2
:0F0FEE008F371204A8BF050674072537F816229F
:0D1037008F361204A8BF01020536AF362225
:0D1044008F361204A8BF05021536AF362204
:100880007A0B7B9DE4FDFF1209C530020E7D01E469
:10089000FF120F537F0312109880097B437D01E400
:1008A000FF120DBEE51375F00A1207522430FB7DCE
:1008B000017F03120DBEE51375F00A120752AFF067
:1008C000EF2430FB7D017F04120DBE7B3A7D017F5A
:1008D00005120DBEE51575F00A1207522430FB7D96
:1008E000017F06120DBEE51575F00A120752AFF032
:0B08F000EF2430FB7D017F07020DBEEE
:1006A2007A0B7BABE4FDFF1209C57B4C7D01E4FFB5
:1006B200120DBE7B3A7D017F01120DBEA201E43311
:1006C20070047B2D80027B2B7D017F03120DBEE522
:1006D2001275F00A842430FB7D017F04120DBEE501
:1006E2001275F00A84E5F02430FB7D017F05120DBE
:1006F200BE7D017F06120F537F041210987B487D46
:10070200017F08120DBE7B3A7D017F09120DBEA248
:1007120000E43370047B2D80027B2B7D017F0B1262
:100722000DBEE51075F00A842430FB7D017F0C12AA
:100732000DBEE51075F00A84E5F02430FB7D017FE3
:100742000D120DBE7D017F0E120F537F0402109811
:1008FB008F36120FDFAF36120FEEE51FB40107E490
:10090B00FD7F01120F53E51F64036005E51FB40261
:10091B000EE51F251F251F24FEFFE4FD120F53E5D7
:10092B001FB404077D017F01120F53E51F6405609F
:10093B0005E51FB4060EE51F251F251F24F5FF7DBA
:10094B0001120F53E51FB407077D017F0F120F53E1
:07095B007D017F0F02101B5C
:0C105100E4FFE4FE0EBE64FC0FBF64F67A
:01105D002270
:100F670030020FE531B51508E532B51303C2B722D4
:030F7700D2B722CC
:100AD800A204B3300001B34009300006E53C95108C
:100AE8005038A204B3300101B3400A300107E53C95
:100AF800D395124025A204B3300001B3400A200068
:100B080007E53CD395104012A204B3300101B3406D
:100B18000C200109E53C95124003C2B322D2B3224E
:100BB900E51D6403703B120F2BBF0210120F3FEFAC
:100BC9005403700475181D2275181C22120F2BEF7F
:100BD90064046016120F2BEF6406600E120F2BEFE0
:100BE90064096006120F2BBF0B0475181E227518B5
:020BF9001F22B9
:100962008F36AA05EA64016003BA0212740C2AFAED
:10097200E536D39400400415368003753604EA2424
:1009820001FFE433FE7C007D0312078D7D05120713
:100992009FAC06AD07EA75F002A47A002BFFEA3598
:1009A200F0CF2DCF3CFE7C00EF2536FFEC3EFEE57E
:1009B200361313543F2FFFEC3EFE7D0712079FEDC7
:0309C20004FF220D
:100C9F00C203D2B6753601D536FDC2B67536FAD552
:100CAF0036FDD2B675361ED536FD20B60B753678A5
:100CBF00D536FD30B6F4D2033003D57536F0D536C0
:010CCF00FD27
:010CD0002201
:100DFA007E08C2B67D06DDFEEF1392B67D19DDFED2
:080E0A00EFC313FFD2B6DEEACC
:010E120022BD
:100A830079027C08EDC313FDC2B67B01DBFED2B64F
:100A93007B04DBFE30B6034305807B19DBFEDCE41D
:100AA300B90204AF058002AE05D9D7C204EE54F8EB
:100AB3006011D2046306FF6307FFEF04FFD394FFC3
:100AC30040010EEF540FF53BEFC4540FFFEEC45437
:040AD300F04FF53CAF
:010AD70022FC
:100DDD00120C9F7FCC120DFA7F44120DFA120C9F4C
:0D0DED007FCC120DFA7FBE120DFA020A83B0
:060D9E00C2A5C2A3D2A50C
:100DA400EF7F08A2E092A4D2A3C2A3FE7D01780142
:090DB400088002C313D8FCDFEA39
:010DBD002213
:100F7A00D2A47F08C313A2A492E7D2A3C2A3DFF428
:010F8A00FF67
:010F8B002243
:0F0FFD00AC05120D9EAF04120DA4D2A3C2A52203
:0C105E00E4FE120D9E120F7AD2A3C2A570
:01106A002263
:100EDB007F8112105EEFC4540F75F00AA4FEEF541D
:030EEB000F2EFFC8
:010EEE0022E1
:100EEF007F8312105EEFC4540F75F00AA4FEEF5407
:030EFF000F2EFFB4
:010F020022CC
:100F03007F8512105EEFC4540F75F00AA4FEEF54F0
:030F13000F2EFF9F
:010F160022B8
:051092007F8B12105ECF
:011097002236
:100F17007F8712105EEFC4540F75F00AA4FEEF54DA
:030F27000F2EFF8B
:010F2A0022A4
:100F2B007F8912105EEFC4540F75F00AA4FEEF54C4
:030F3B000F2EFF77
:010F3E002290
:100F3F007F8D12105EEFC4540F75F00AA4FEEF54AC
:030F4F000F2EFF63
:010F5200227C
:100E1300AD07ED75F00A84C454F0FFED75F00A8454
:090E2300EF25F0FD7F80020FFDB8
:100E2C00AD07ED75F00A84C454F0FFED75F00A843B
:090E3C00EF25F0FD7F82020FFD9D
:100E4500AD07ED75F00A84C454F0FFED75F00A8422
:090E5500EF25F0FD7F84020FFD82
:100E5E00AD07ED75F00A84C454F0FFED75F00A8409
:090E6E00EF25F0FD7F86020FFD67
:100E7700AD07ED75F00A84C454F0FFED75F00A84F0
:090E8700EF25F0FD7F88020FFD4C
:07107600AD077F8A020FFDA8
:100E9000AD07ED75F00A84C454F0FFED75F00A84D7
:090EA000EF25F0FD7F8C020FFD2F
:07107D00E4FD7F8E020FFD70
:071084007D807F85020FFD56
:100D000012107D1210847F32120E137F3B120E2CB4
:100D10007F17120E457F1F120E5E7F0C1210767F1A
:090D20000A120E777F0A020E9000
:100CD1008E218F228D8212107D121084AF2C120E64
:100CE10013AF82120E77AF2E121076AF22120E9032
:0F0CF100AF03120E5EAF28120E45AF2A020E2C73
:100D7A00120EDB8F2F120EEF8F31120F038F3212EA
:100D8A000F178F301210928F34120F2B8F33120FCE
:040D9A003F8F352230
:100D5200080F120F0A1F02000F111F111F1113009B
:100D62001F11111F11111F00050E1417140E05007B
:080D7200191B04080804030129
:06108B00C2A18F90D2A269
:01109100223C
:0E100C007FB07E15EF1FAC0670011E4C70F613
:01101A0022B3
:100EA9007D05AC051DEC60107E1C7F65EF1FAA0651
:080EB90070011E4A60EC80F498
:010EC100220E
:100FBF007590FFC2A0D2A1D2A21210912097F12258
:0E101B00ED6003120FBFC2A012108BC2A22202
:0B106B00120FBFD2A012108BC2A222F5
:100F5300ED7006EF2480FE8004EF24C0FEAF06E4AC
:040F6300FD02101B60
:100DBE00AE07AC0353050153060FED600343064027
:0F0DCE00430680AF06E4FD12101BAF0402106B4A
:0809C5008F368D378A388B391B
:1009CD00E4F53AE539253AF582E43538F583E493D3
:1009DD00D3941F4004053A80EAE4F9E9C3953A50EF
:1009ED0037AF360536E53929F582E43538F583E438
:1009FD0093FBAD37120DBEE536B41019E4F5366331
:100A0D003701E537700FFB120EA90BBB0AF97D01FB
:080A1D007F0112101B0980C3C8
:010A250022AE
:100EC200E4FEEE2440FFE4FD12101BEE900D52935F
:080ED200FF12106B0EBE28EAAE
:010EDA0022F5
:0310980002106BD8
:100BFB0012100C12100C12100CE4FD7F3812101B8B
:100C0B0012100C7F3812101B12100C7F3812101B95
:100C1B000D12101B7F0812101B7F0112101B7F0679
:080C2B0012101B7F0C02101BCC
:030C6600013D004D
:0D102900EFD3940040077E6EDEFE1F80F3C3
:011036002297
:1004A800E4F5387580FE85803D533DF0E53D64F008
:1004B80060317F3212102985803DE53D2482601B22
:1004C80024C0601224E0600924F07014753801809B
:1004D80012753802800D753803800875380480035A
:1004E800E4F5387580FD85803D533DF0E53D64F0C9
:1004F80060317F6412102985803DE53D2483601BAF
:1005080024C0601224E0600924F070147538058056
:1005180012753806800D753807800875380880030D
:10052800E4F5387580FB85803D533DF0E53D64F08A
:1005380060317F6412102985803DE53D2485601B6C
:1005480024C0601224E0600924F0701475380A8011
:1005580012753809800D75380B800875380C8003C2
:10056800E4F5387580F785803D533DF0E53D64F04E
:1005780060317F6412102985803DE53D2489601B28
:1005880024C0601224E0600924F0701475380D80CE
:100598001275380E800D75380F8008753810800375
:0505A800E4F538AF3856
:0105AD00222B
:100FCF003031323334353637383941424344454670
:100FAE00758920758DFD758BFDD28ED2AC759850DE
:010FBE002210
:100D29001207746010F5993099FDC299740129F977
:100D3900E43AFA80EBED601075990D3099FDC2998E
:090D490075990A3099FDC2992246
:030000000207F400
:0C07F400787FE4F6D8FD75813D02083BDB
:10075200C2D530F707B2D563F0FF05F030E70CB22F
:10076200D5F4048463F0FF05F080018430D502F4EF
:0207720004225F
:10077400BB010689828A83E0225002E722BBFE0283
:09078400E32289828A83E49322B6
:10078D00EF8DF0A4A8F0CF8CF0A428CE8DF0A42E80
:02079D00FE223A
:10079F00BC000BBE0029EF8DF084FFADF022E4CC3E
:1007AF00F875F008EF2FFFEE33FEEC33FCEE9DEC07
:1007BF00984005FCEE9DFE0FD5F0E9E4CEFD22ED4D
:1007CF00F8F5F0EE8420D21CFEADF075F008EF2F97
:1007DF00FFED33FD4007985006D5F0F222C398FD88
:0507EF000FD5F0EA2225
:10080000020003E493A3F8E493A34003F68001F20B
:1008100008DFF48029E493A3F85407240CC8C333F9
:10082000C4540F4420C8834004F456800146F6DFC8
:10083000E4800B0102040810204080900C33E47E19
:10084000019360BCA3FF543F30E509541FFEE493BD
:10085000A360010ECF54C025E060A840B8E493A384
:10086000FAE493A3F8E493A3C8C582C8CAC583CAAF
:10087000F0A3C8C582C8CAC583CADFE9DEE780BE67
:010C6900008A
:00000001FF
